{
  "_format": "hh-sol-artifact-1",
  "contractName": "EdexaTokenPool",
  "sourceName": "contracts/EdeXaTokenPool.sol",
  "abi": [
    {
      "inputs": [
        {
          "internalType": "address",
          "name": "_wmbGateway",
          "type": "address"
        },
        {
          "internalType": "address",
          "name": "_poolToken",
          "type": "address"
        }
      ],
      "stateMutability": "nonpayable",
      "type": "constructor"
    },
    {
      "inputs": [],
      "name": "AccessControlBadConfirmation",
      "type": "error"
    },
    {
      "inputs": [
        {
          "internalType": "address",
          "name": "account",
          "type": "address"
        },
        {
          "internalType": "bytes32",
          "name": "neededRole",
          "type": "bytes32"
        }
      ],
      "name": "AccessControlUnauthorizedAccount",
      "type": "error"
    },
    {
      "inputs": [
        {
          "internalType": "address",
          "name": "target",
          "type": "address"
        }
      ],
      "name": "AddressEmptyCode",
      "type": "error"
    },
    {
      "inputs": [
        {
          "internalType": "address",
          "name": "account",
          "type": "address"
        }
      ],
      "name": "AddressInsufficientBalance",
      "type": "error"
    },
    {
      "inputs": [],
      "name": "FailedInnerCall",
      "type": "error"
    },
    {
      "inputs": [],
      "name": "InvalidInitialization",
      "type": "error"
    },
    {
      "inputs": [],
      "name": "NotInitializing",
      "type": "error"
    },
    {
      "inputs": [
        {
          "internalType": "address",
          "name": "from",
          "type": "address"
        },
        {
          "internalType": "address",
          "name": "to",
          "type": "address"
        },
        {
          "internalType": "uint256",
          "name": "amount",
          "type": "uint256"
        },
        {
          "internalType": "uint256",
          "name": "fromChainId",
          "type": "uint256"
        }
      ],
      "name": "RevertFailed",
      "type": "error"
    },
    {
      "inputs": [
        {
          "internalType": "address",
          "name": "token",
          "type": "address"
        }
      ],
      "name": "SafeERC20FailedOperation",
      "type": "error"
    },
    {
      "anonymous": false,
      "inputs": [
        {
          "indexed": true,
          "internalType": "uint256",
          "name": "fromChainId",
          "type": "uint256"
        },
        {
          "indexed": true,
          "internalType": "address",
          "name": "from",
          "type": "address"
        },
        {
          "indexed": true,
          "internalType": "address",
          "name": "to",
          "type": "address"
        },
        {
          "indexed": false,
          "internalType": "uint256",
          "name": "amount",
          "type": "uint256"
        },
        {
          "indexed": false,
          "internalType": "string",
          "name": "crossType",
          "type": "string"
        }
      ],
      "name": "CrossArrive",
      "type": "event"
    },
    {
      "anonymous": false,
      "inputs": [
        {
          "indexed": true,
          "internalType": "uint256",
          "name": "toChainId",
          "type": "uint256"
        },
        {
          "indexed": true,
          "internalType": "address",
          "name": "from",
          "type": "address"
        },
        {
          "indexed": true,
          "internalType": "address",
          "name": "to",
          "type": "address"
        },
        {
          "indexed": false,
          "internalType": "uint256",
          "name": "amount",
          "type": "uint256"
        }
      ],
      "name": "CrossRequest",
      "type": "event"
    },
    {
      "anonymous": false,
      "inputs": [
        {
          "indexed": true,
          "internalType": "uint256",
          "name": "fromChainId",
          "type": "uint256"
        },
        {
          "indexed": true,
          "internalType": "address",
          "name": "from",
          "type": "address"
        },
        {
          "indexed": true,
          "internalType": "address",
          "name": "to",
          "type": "address"
        },
        {
          "indexed": false,
          "internalType": "uint256",
          "name": "amount",
          "type": "uint256"
        }
      ],
      "name": "CrossRevert",
      "type": "event"
    },
    {
      "anonymous": false,
      "inputs": [
        {
          "indexed": false,
          "internalType": "uint64",
          "name": "version",
          "type": "uint64"
        }
      ],
      "name": "Initialized",
      "type": "event"
    },
    {
      "anonymous": false,
      "inputs": [
        {
          "indexed": true,
          "internalType": "bytes32",
          "name": "role",
          "type": "bytes32"
        },
        {
          "indexed": true,
          "internalType": "bytes32",
          "name": "previousAdminRole",
          "type": "bytes32"
        },
        {
          "indexed": true,
          "internalType": "bytes32",
          "name": "newAdminRole",
          "type": "bytes32"
        }
      ],
      "name": "RoleAdminChanged",
      "type": "event"
    },
    {
      "anonymous": false,
      "inputs": [
        {
          "indexed": true,
          "internalType": "bytes32",
          "name": "role",
          "type": "bytes32"
        },
        {
          "indexed": true,
          "internalType": "address",
          "name": "account",
          "type": "address"
        },
        {
          "indexed": true,
          "internalType": "address",
          "name": "sender",
          "type": "address"
        }
      ],
      "name": "RoleGranted",
      "type": "event"
    },
    {
      "anonymous": false,
      "inputs": [
        {
          "indexed": true,
          "internalType": "bytes32",
          "name": "role",
          "type": "bytes32"
        },
        {
          "indexed": true,
          "internalType": "address",
          "name": "account",
          "type": "address"
        },
        {
          "indexed": true,
          "internalType": "address",
          "name": "sender",
          "type": "address"
        }
      ],
      "name": "RoleRevoked",
      "type": "event"
    },
    {
      "inputs": [],
      "name": "DEFAULT_ADMIN_ROLE",
      "outputs": [
        {
          "internalType": "bytes32",
          "name": "",
          "type": "bytes32"
        }
      ],
      "stateMutability": "view",
      "type": "function"
    },
    {
      "inputs": [
        {
          "internalType": "uint256",
          "name": "_chainId",
          "type": "uint256"
        },
        {
          "internalType": "address",
          "name": "_remotePool",
          "type": "address"
        }
      ],
      "name": "configRemotePool",
      "outputs": [],
      "stateMutability": "nonpayable",
      "type": "function"
    },
    {
      "inputs": [
        {
          "internalType": "uint256",
          "name": "_chainId",
          "type": "uint256"
        }
      ],
      "name": "configTargetChainId",
      "outputs": [],
      "stateMutability": "nonpayable",
      "type": "function"
    },
    {
      "inputs": [
        {
          "internalType": "address",
          "name": "_to",
          "type": "address"
        },
        {
          "internalType": "uint256",
          "name": "_amount",
          "type": "uint256"
        }
      ],
      "name": "crossTo",
      "outputs": [],
      "stateMutability": "payable",
      "type": "function"
    },
    {
      "inputs": [
        {
          "internalType": "uint256",
          "name": "toChain",
          "type": "uint256"
        },
        {
          "internalType": "uint256",
          "name": "gasLimit",
          "type": "uint256"
        }
      ],
      "name": "estimateFee",
      "outputs": [
        {
          "internalType": "uint256",
          "name": "",
          "type": "uint256"
        }
      ],
      "stateMutability": "view",
      "type": "function"
    },
    {
      "inputs": [
        {
          "internalType": "bytes32",
          "name": "role",
          "type": "bytes32"
        }
      ],
      "name": "getRoleAdmin",
      "outputs": [
        {
          "internalType": "bytes32",
          "name": "",
          "type": "bytes32"
        }
      ],
      "stateMutability": "view",
      "type": "function"
    },
    {
      "inputs": [
        {
          "internalType": "bytes32",
          "name": "role",
          "type": "bytes32"
        },
        {
          "internalType": "address",
          "name": "account",
          "type": "address"
        }
      ],
      "name": "grantRole",
      "outputs": [],
      "stateMutability": "nonpayable",
      "type": "function"
    },
    {
      "inputs": [
        {
          "internalType": "bytes32",
          "name": "role",
          "type": "bytes32"
        },
        {
          "internalType": "address",
          "name": "account",
          "type": "address"
        }
      ],
      "name": "hasRole",
      "outputs": [
        {
          "internalType": "bool",
          "name": "",
          "type": "bool"
        }
      ],
      "stateMutability": "view",
      "type": "function"
    },
    {
      "inputs": [
        {
          "internalType": "address",
          "name": "admin",
          "type": "address"
        },
        {
          "internalType": "address",
          "name": "_wmbGateway",
          "type": "address"
        }
      ],
      "name": "initialize",
      "outputs": [],
      "stateMutability": "nonpayable",
      "type": "function"
    },
    {
      "inputs": [],
      "name": "poolToken",
      "outputs": [
        {
          "internalType": "address",
          "name": "",
          "type": "address"
        }
      ],
      "stateMutability": "view",
      "type": "function"
    },
    {
      "inputs": [
        {
          "internalType": "uint256",
          "name": "",
          "type": "uint256"
        }
      ],
      "name": "remotePools",
      "outputs": [
        {
          "internalType": "address",
          "name": "",
          "type": "address"
        }
      ],
      "stateMutability": "view",
      "type": "function"
    },
    {
      "inputs": [
        {
          "internalType": "bytes32",
          "name": "role",
          "type": "bytes32"
        },
        {
          "internalType": "address",
          "name": "callerConfirmation",
          "type": "address"
        }
      ],
      "name": "renounceRole",
      "outputs": [],
      "stateMutability": "nonpayable",
      "type": "function"
    },
    {
      "inputs": [
        {
          "internalType": "bytes32",
          "name": "role",
          "type": "bytes32"
        },
        {
          "internalType": "address",
          "name": "account",
          "type": "address"
        }
      ],
      "name": "revokeRole",
      "outputs": [],
      "stateMutability": "nonpayable",
      "type": "function"
    },
    {
      "inputs": [
        {
          "internalType": "uint256[]",
          "name": "fromChainIds",
          "type": "uint256[]"
        },
        {
          "internalType": "address[]",
          "name": "froms",
          "type": "address[]"
        },
        {
          "internalType": "bool[]",
          "name": "trusted",
          "type": "bool[]"
        }
      ],
      "name": "setTrustedRemotes",
      "outputs": [],
      "stateMutability": "nonpayable",
      "type": "function"
    },
    {
      "inputs": [
        {
          "internalType": "bytes4",
          "name": "interfaceId",
          "type": "bytes4"
        }
      ],
      "name": "supportsInterface",
      "outputs": [
        {
          "internalType": "bool",
          "name": "",
          "type": "bool"
        }
      ],
      "stateMutability": "view",
      "type": "function"
    },
    {
      "inputs": [],
      "name": "targetChainId",
      "outputs": [
        {
          "internalType": "uint256",
          "name": "",
          "type": "uint256"
        }
      ],
      "stateMutability": "view",
      "type": "function"
    },
    {
      "inputs": [
        {
          "internalType": "uint256",
          "name": "",
          "type": "uint256"
        },
        {
          "internalType": "address",
          "name": "",
          "type": "address"
        }
      ],
      "name": "trustedRemotes",
      "outputs": [
        {
          "internalType": "bool",
          "name": "",
          "type": "bool"
        }
      ],
      "stateMutability": "view",
      "type": "function"
    },
    {
      "inputs": [],
      "name": "wmbGateway",
      "outputs": [
        {
          "internalType": "address",
          "name": "",
          "type": "address"
        }
      ],
      "stateMutability": "view",
      "type": "function"
    },
    {
      "inputs": [
        {
          "internalType": "bytes",
          "name": "data",
          "type": "bytes"
        },
        {
          "internalType": "bytes32",
          "name": "messageId",
          "type": "bytes32"
        },
        {
          "internalType": "uint256",
          "name": "fromChainId",
          "type": "uint256"
        },
        {
          "internalType": "address",
          "name": "from",
          "type": "address"
        }
      ],
      "name": "wmbReceive",
      "outputs": [],
      "stateMutability": "nonpayable",
      "type": "function"
    },
    {
      "stateMutability": "payable",
      "type": "receive"
    }
  ],
  "bytecode": "0x60806040523480156200001157600080fd5b5060405162002e4238038062002e42833981810160405281019062000037919062000487565b6200004933836200009260201b60201c565b80600360006101000a81548173ffffffffffffffffffffffffffffffffffffffff021916908373ffffffffffffffffffffffffffffffffffffffff16021790555050506200054c565b6000620000a46200028060201b60201c565b905060008160000160089054906101000a900460ff1615905060008260000160009054906101000a900467ffffffffffffffff1690506000808267ffffffffffffffff16148015620000f35750825b9050600060018367ffffffffffffffff1614801562000129575060003073ffffffffffffffffffffffffffffffffffffffff163b145b90508115801562000138575080155b1562000170576040517ff92ee8a900000000000000000000000000000000000000000000000000000000815260040160405180910390fd5b60018560000160006101000a81548167ffffffffffffffff021916908367ffffffffffffffff1602179055508315620001c15760018560000160086101000a81548160ff0219169083151502179055505b620001d66000801b88620002a860201b60201c565b5085600160006101000a81548173ffffffffffffffffffffffffffffffffffffffff021916908373ffffffffffffffffffffffffffffffffffffffff1602179055508315620002775760008560000160086101000a81548160ff0219169083151502179055507fc7f505b2f371ae2175ee4913f4499e1f2633a7b5936321eed1cdaeb6115181d260016040516200026e91906200052f565b60405180910390a15b50505050505050565b60007ff0c57e16840df040f15088dc2f81fe391c3923bec73e23a9662efc9c229c6a00905090565b6000620002bc8383620003ab60201b60201c565b620003a057600160008085815260200190815260200160002060000160008473ffffffffffffffffffffffffffffffffffffffff1673ffffffffffffffffffffffffffffffffffffffff16815260200190815260200160002060006101000a81548160ff0219169083151502179055506200033c6200041560201b60201c565b73ffffffffffffffffffffffffffffffffffffffff168273ffffffffffffffffffffffffffffffffffffffff16847f2f8788117e7eff1d82e926ec794901d17c78024a50270940304540a733656f0d60405160405180910390a460019050620003a5565b600090505b92915050565b600080600084815260200190815260200160002060000160008373ffffffffffffffffffffffffffffffffffffffff1673ffffffffffffffffffffffffffffffffffffffff16815260200190815260200160002060009054906101000a900460ff16905092915050565b600033905090565b600080fd5b600073ffffffffffffffffffffffffffffffffffffffff82169050919050565b60006200044f8262000422565b9050919050565b620004618162000442565b81146200046d57600080fd5b50565b600081519050620004818162000456565b92915050565b60008060408385031215620004a157620004a06200041d565b5b6000620004b18582860162000470565b9250506020620004c48582860162000470565b9150509250929050565b6000819050919050565b600067ffffffffffffffff82169050919050565b6000819050919050565b600062000517620005116200050b84620004ce565b620004ec565b620004d8565b9050919050565b6200052981620004f6565b82525050565b60006020820190506200054660008301846200051e565b92915050565b6128e6806200055c6000396000f3fe6080604052600436106101175760003560e01c80637f34071d116100a0578063c4aaa84011610064578063c4aaa840146103cb578063cbdf382c146103e7578063d547741f14610412578063e3d4683b1461043b578063edb118ff146104785761011e565b80637f34071d146102d457806391d14854146102fd578063a217fddf1461033a578063bf4512d314610365578063c2b8b094146103a25761011e565b80632f2ff15d116100e75780632f2ff15d146102055780633088a5f91461022e57806336568abe146102595780633a1a5b7614610282578063485cc955146102ab5761011e565b8062e1d8d01461012357806301ffc9a714610160578063146ffb261461019d578063248a9ca3146101c85761011e565b3661011e57005b600080fd5b34801561012f57600080fd5b5061014a60048036038101906101459190611895565b6104a1565b60405161015791906118e4565b60405180910390f35b34801561016c57600080fd5b5061018760048036038101906101829190611957565b610548565b604051610194919061199f565b60405180910390f35b3480156101a957600080fd5b506101b26105c2565b6040516101bf91906118e4565b60405180910390f35b3480156101d457600080fd5b506101ef60048036038101906101ea91906119f0565b6105c8565b6040516101fc9190611a2c565b60405180910390f35b34801561021157600080fd5b5061022c60048036038101906102279190611aa5565b6105e7565b005b34801561023a57600080fd5b50610243610609565b6040516102509190611af4565b60405180910390f35b34801561026557600080fd5b50610280600480360381019061027b9190611aa5565b61062f565b005b34801561028e57600080fd5b506102a960048036038101906102a49190611b74565b6106aa565b005b3480156102b757600080fd5b506102d260048036038101906102cd9190611bfc565b6107eb565b005b3480156102e057600080fd5b506102fb60048036038101906102f69190611d3e565b6109c1565b005b34801561030957600080fd5b50610324600480360381019061031f9190611aa5565b610b59565b604051610331919061199f565b60405180910390f35b34801561034657600080fd5b5061034f610bc3565b60405161035c9190611a2c565b60405180910390f35b34801561037157600080fd5b5061038c60048036038101906103879190611df2565b610bca565b6040516103999190611af4565b60405180910390f35b3480156103ae57600080fd5b506103c960048036038101906103c49190611e1f565b610bfd565b005b6103e560048036038101906103e09190611e5f565b610c61565b005b3480156103f357600080fd5b506103fc610e39565b6040516104099190611af4565b60405180910390f35b34801561041e57600080fd5b5061043960048036038101906104349190611aa5565b610e5f565b005b34801561044757600080fd5b50610462600480360381019061045d9190611e1f565b610e81565b60405161046f919061199f565b60405180910390f35b34801561048457600080fd5b5061049f600480360381019061049a9190611df2565b610eb0565b005b6000600160009054906101000a900473ffffffffffffffffffffffffffffffffffffffff1673ffffffffffffffffffffffffffffffffffffffff1662e1d8d084846040518363ffffffff1660e01b81526004016104ff929190611e9f565b602060405180830381865afa15801561051c573d6000803e3d6000fd5b505050506040513d601f19601f820116820180604052508101906105409190611edd565b905092915050565b60007f7965db0b000000000000000000000000000000000000000000000000000000007bffffffffffffffffffffffffffffffffffffffffffffffffffffffff1916827bffffffffffffffffffffffffffffffffffffffffffffffffffffffff191614806105bb57506105ba82610ec8565b5b9050919050565b60045481565b6000806000838152602001908152602001600020600101549050919050565b6105f0826105c8565b6105f981610f32565b6106038383610f46565b50505050565b600160009054906101000a900473ffffffffffffffffffffffffffffffffffffffff1681565b610637611037565b73ffffffffffffffffffffffffffffffffffffffff168173ffffffffffffffffffffffffffffffffffffffff161461069b576040517f6697b23200000000000000000000000000000000000000000000000000000000815260040160405180910390fd5b6106a5828261103f565b505050565b600160009054906101000a900473ffffffffffffffffffffffffffffffffffffffff1673ffffffffffffffffffffffffffffffffffffffff163373ffffffffffffffffffffffffffffffffffffffff161461073a576040517f08c379a000000000000000000000000000000000000000000000000000000000815260040161073190611f8d565b60405180910390fd5b6002600083815260200190815260200160002060008273ffffffffffffffffffffffffffffffffffffffff1673ffffffffffffffffffffffffffffffffffffffff16815260200190815260200160002060009054906101000a900460ff166107d7576040517f08c379a00000000000000000000000000000000000000000000000000000000081526004016107ce90611ff9565b60405180910390fd5b6107e48585858585611131565b5050505050565b60006107f56113d4565b905060008160000160089054906101000a900460ff1615905060008260000160009054906101000a900467ffffffffffffffff1690506000808267ffffffffffffffff161480156108435750825b9050600060018367ffffffffffffffff16148015610878575060003073ffffffffffffffffffffffffffffffffffffffff163b145b905081158015610886575080155b156108bd576040517ff92ee8a900000000000000000000000000000000000000000000000000000000815260040160405180910390fd5b60018560000160006101000a81548167ffffffffffffffff021916908367ffffffffffffffff160217905550831561090d5760018560000160086101000a81548160ff0219169083151502179055505b61091a6000801b88610f46565b5085600160006101000a81548173ffffffffffffffffffffffffffffffffffffffff021916908373ffffffffffffffffffffffffffffffffffffffff16021790555083156109b85760008560000160086101000a81548160ff0219169083151502179055507fc7f505b2f371ae2175ee4913f4499e1f2633a7b5936321eed1cdaeb6115181d260016040516109af9190612072565b60405180910390a15b50505050505050565b6109ce6000801b33610b59565b610a0d576040517f08c379a0000000000000000000000000000000000000000000000000000000008152600401610a04906120ff565b60405180910390fd5b8383905086869050148015610a2757508181905084849050145b610a66576040517f08c379a0000000000000000000000000000000000000000000000000000000008152600401610a5d9061216b565b60405180910390fd5b60005b86869050811015610b5057828282818110610a8757610a8661218b565b5b9050602002016020810190610a9c91906121e6565b60026000898985818110610ab357610ab261218b565b5b9050602002013581526020019081526020016000206000878785818110610add57610adc61218b565b5b9050602002016020810190610af29190612213565b73ffffffffffffffffffffffffffffffffffffffff1673ffffffffffffffffffffffffffffffffffffffff16815260200190815260200160002060006101000a81548160ff0219169083151502179055508080600101915050610a69565b50505050505050565b600080600084815260200190815260200160002060000160008373ffffffffffffffffffffffffffffffffffffffff1673ffffffffffffffffffffffffffffffffffffffff16815260200190815260200160002060009054906101000a900460ff16905092915050565b6000801b81565b60056020528060005260406000206000915054906101000a900473ffffffffffffffffffffffffffffffffffffffff1681565b6000801b610c0a81610f32565b816005600085815260200190815260200160002060006101000a81548173ffffffffffffffffffffffffffffffffffffffff021916908373ffffffffffffffffffffffffffffffffffffffff160217905550505050565b60006004549050600073ffffffffffffffffffffffffffffffffffffffff166005600083815260200190815260200160002060009054906101000a900473ffffffffffffffffffffffffffffffffffffffff1673ffffffffffffffffffffffffffffffffffffffff1603610d0a576040517f08c379a0000000000000000000000000000000000000000000000000000000008152600401610d019061228c565b60405180910390fd5b610d59333084600360009054906101000a900473ffffffffffffffffffffffffffffffffffffffff1673ffffffffffffffffffffffffffffffffffffffff166113fc909392919063ffffffff16565b6000610d6882620c35006104a1565b9050610dcc826005600085815260200190815260200160002060009054906101000a900473ffffffffffffffffffffffffffffffffffffffff16338787604051602001610db7939291906122f8565b6040516020818303038152906040528461147e565b508373ffffffffffffffffffffffffffffffffffffffff163373ffffffffffffffffffffffffffffffffffffffff16837f1a57b6e187335684e3c8cb69608a4155049f5fbedb5af9e8c4afba983dcd14bd86604051610e2b91906118e4565b60405180910390a450505050565b600360009054906101000a900473ffffffffffffffffffffffffffffffffffffffff1681565b610e68826105c8565b610e7181610f32565b610e7b838361103f565b50505050565b60026020528160005260406000206020528060005260406000206000915091509054906101000a900460ff1681565b6000801b610ebd81610f32565b816004819055505050565b60007f01ffc9a7000000000000000000000000000000000000000000000000000000007bffffffffffffffffffffffffffffffffffffffffffffffffffffffff1916827bffffffffffffffffffffffffffffffffffffffffffffffffffffffff1916149050919050565b610f4381610f3e611037565b61152d565b50565b6000610f528383610b59565b61102c57600160008085815260200190815260200160002060000160008473ffffffffffffffffffffffffffffffffffffffff1673ffffffffffffffffffffffffffffffffffffffff16815260200190815260200160002060006101000a81548160ff021916908315150217905550610fc9611037565b73ffffffffffffffffffffffffffffffffffffffff168273ffffffffffffffffffffffffffffffffffffffff16847f2f8788117e7eff1d82e926ec794901d17c78024a50270940304540a733656f0d60405160405180910390a460019050611031565b600090505b92915050565b600033905090565b600061104b8383610b59565b1561112657600080600085815260200190815260200160002060000160008473ffffffffffffffffffffffffffffffffffffffff1673ffffffffffffffffffffffffffffffffffffffff16815260200190815260200160002060006101000a81548160ff0219169083151502179055506110c3611037565b73ffffffffffffffffffffffffffffffffffffffff168273ffffffffffffffffffffffffffffffffffffffff16847ff6391f5c32d9c69d2a47ea670b442974b53935d1edc7fd64eb21e047a839171b60405160405180910390a46001905061112b565b600090505b92915050565b600080600080888881019061114691906124c1565b935093509350935081600360009054906101000a900473ffffffffffffffffffffffffffffffffffffffff1673ffffffffffffffffffffffffffffffffffffffff166370a08231306040518263ffffffff1660e01b81526004016111aa9190611af4565b602060405180830381865afa1580156111c7573d6000803e3d6000fd5b505050506040513d601f19601f820116820180604052508101906111eb9190611edd565b106112aa5761123d8383600360009054906101000a900473ffffffffffffffffffffffffffffffffffffffff1673ffffffffffffffffffffffffffffffffffffffff1661157e9092919063ffffffff16565b8273ffffffffffffffffffffffffffffffffffffffff168473ffffffffffffffffffffffffffffffffffffffff16877f562d19e64f1e6d0b1cc1ff383f9fbc0162d055202278d2c7dcc258b25cb700b7858560405161129d9291906125b2565b60405180910390a46113c9565b7f8dc8cb22bfc1eeba340c0c09f7a1b7041c2a96a4c3a89cb2d47ecc671471db8d8180519060200120036113855760006112e78762061a806104a1565b905061131887878688876040516020016113039392919061262e565b6040516020818303038152906040528461147e565b508373ffffffffffffffffffffffffffffffffffffffff168573ffffffffffffffffffffffffffffffffffffffff16887f71bf04511eb7e8368da280a96ce20f45bb43fda962d1b0c39f90a08b5e2ef4898660405161137791906118e4565b60405180910390a4506113c8565b838383886040517f544e6f4f0000000000000000000000000000000000000000000000000000000081526004016113bf9493929190612678565b60405180910390fd5b5b505050505050505050565b60007ff0c57e16840df040f15088dc2f81fe391c3923bec73e23a9662efc9c229c6a00905090565b611478848573ffffffffffffffffffffffffffffffffffffffff166323b872dd868686604051602401611431939291906126bd565b604051602081830303815290604052915060e01b6020820180517bffffffffffffffffffffffffffffffffffffffffffffffffffffffff83818316178352505050506115fd565b50505050565b6000600160009054906101000a900473ffffffffffffffffffffffffffffffffffffffff1673ffffffffffffffffffffffffffffffffffffffff1663fe39827b838787876040518563ffffffff1660e01b81526004016114e093929190612749565b60206040518083038185885af11580156114fe573d6000803e3d6000fd5b50505050506040513d601f19601f82011682018060405250810190611523919061279c565b9050949350505050565b6115378282610b59565b61157a5780826040517fe2517d3f0000000000000000000000000000000000000000000000000000000081526004016115719291906127c9565b60405180910390fd5b5050565b6115f8838473ffffffffffffffffffffffffffffffffffffffff1663a9059cbb85856040516024016115b19291906127f2565b604051602081830303815290604052915060e01b6020820180517bffffffffffffffffffffffffffffffffffffffffffffffffffffffff83818316178352505050506115fd565b505050565b6000611628828473ffffffffffffffffffffffffffffffffffffffff1661169490919063ffffffff16565b9050600081511415801561164d57508080602001905181019061164b9190612830565b155b1561168f57826040517f5274afe70000000000000000000000000000000000000000000000000000000081526004016116869190611af4565b60405180910390fd5b505050565b60606116a2838360006116aa565b905092915050565b6060814710156116f157306040517fcd7860590000000000000000000000000000000000000000000000000000000081526004016116e89190611af4565b60405180910390fd5b6000808573ffffffffffffffffffffffffffffffffffffffff16848660405161171a9190612899565b60006040518083038185875af1925050503d8060008114611757576040519150601f19603f3d011682016040523d82523d6000602084013e61175c565b606091505b509150915061176c868383611777565b925050509392505050565b60608261178c5761178782611806565b6117fe565b600082511480156117b4575060008473ffffffffffffffffffffffffffffffffffffffff163b145b156117f657836040517f9996b3150000000000000000000000000000000000000000000000000000000081526004016117ed9190611af4565b60405180910390fd5b8190506117ff565b5b9392505050565b6000815111156118195780518082602001fd5b6040517f1425ea4200000000000000000000000000000000000000000000000000000000815260040160405180910390fd5b6000604051905090565b600080fd5b600080fd5b6000819050919050565b6118728161185f565b811461187d57600080fd5b50565b60008135905061188f81611869565b92915050565b600080604083850312156118ac576118ab611855565b5b60006118ba85828601611880565b92505060206118cb85828601611880565b9150509250929050565b6118de8161185f565b82525050565b60006020820190506118f960008301846118d5565b92915050565b60007fffffffff0000000000000000000000000000000000000000000000000000000082169050919050565b611934816118ff565b811461193f57600080fd5b50565b6000813590506119518161192b565b92915050565b60006020828403121561196d5761196c611855565b5b600061197b84828501611942565b91505092915050565b60008115159050919050565b61199981611984565b82525050565b60006020820190506119b46000830184611990565b92915050565b6000819050919050565b6119cd816119ba565b81146119d857600080fd5b50565b6000813590506119ea816119c4565b92915050565b600060208284031215611a0657611a05611855565b5b6000611a14848285016119db565b91505092915050565b611a26816119ba565b82525050565b6000602082019050611a416000830184611a1d565b92915050565b600073ffffffffffffffffffffffffffffffffffffffff82169050919050565b6000611a7282611a47565b9050919050565b611a8281611a67565b8114611a8d57600080fd5b50565b600081359050611a9f81611a79565b92915050565b60008060408385031215611abc57611abb611855565b5b6000611aca858286016119db565b9250506020611adb85828601611a90565b9150509250929050565b611aee81611a67565b82525050565b6000602082019050611b096000830184611ae5565b92915050565b600080fd5b600080fd5b600080fd5b60008083601f840112611b3457611b33611b0f565b5b8235905067ffffffffffffffff811115611b5157611b50611b14565b5b602083019150836001820283011115611b6d57611b6c611b19565b5b9250929050565b600080600080600060808688031215611b9057611b8f611855565b5b600086013567ffffffffffffffff811115611bae57611bad61185a565b5b611bba88828901611b1e565b95509550506020611bcd888289016119db565b9350506040611bde88828901611880565b9250506060611bef88828901611a90565b9150509295509295909350565b60008060408385031215611c1357611c12611855565b5b6000611c2185828601611a90565b9250506020611c3285828601611a90565b9150509250929050565b60008083601f840112611c5257611c51611b0f565b5b8235905067ffffffffffffffff811115611c6f57611c6e611b14565b5b602083019150836020820283011115611c8b57611c8a611b19565b5b9250929050565b60008083601f840112611ca857611ca7611b0f565b5b8235905067ffffffffffffffff811115611cc557611cc4611b14565b5b602083019150836020820283011115611ce157611ce0611b19565b5b9250929050565b60008083601f840112611cfe57611cfd611b0f565b5b8235905067ffffffffffffffff811115611d1b57611d1a611b14565b5b602083019150836020820283011115611d3757611d36611b19565b5b9250929050565b60008060008060008060608789031215611d5b57611d5a611855565b5b600087013567ffffffffffffffff811115611d7957611d7861185a565b5b611d8589828a01611c3c565b9650965050602087013567ffffffffffffffff811115611da857611da761185a565b5b611db489828a01611c92565b9450945050604087013567ffffffffffffffff811115611dd757611dd661185a565b5b611de389828a01611ce8565b92509250509295509295509295565b600060208284031215611e0857611e07611855565b5b6000611e1684828501611880565b91505092915050565b60008060408385031215611e3657611e35611855565b5b6000611e4485828601611880565b9250506020611e5585828601611a90565b9150509250929050565b60008060408385031215611e7657611e75611855565b5b6000611e8485828601611a90565b9250506020611e9585828601611880565b9150509250929050565b6000604082019050611eb460008301856118d5565b611ec160208301846118d5565b9392505050565b600081519050611ed781611869565b92915050565b600060208284031215611ef357611ef2611855565b5b6000611f0184828501611ec8565b91505092915050565b600082825260208201905092915050565b7f576d624170703a204f6e6c7920574d4220676174657761792063616e2063616c60008201527f6c20746869732066756e6374696f6e0000000000000000000000000000000000602082015250565b6000611f77602f83611f0a565b9150611f8282611f1b565b604082019050919050565b60006020820190508181036000830152611fa681611f6a565b9050919050565b7f576d624170703a2052656d6f7465206973206e6f742074727573746564000000600082015250565b6000611fe3601d83611f0a565b9150611fee82611fad565b602082019050919050565b6000602082019050818103600083015261201281611fd6565b9050919050565b6000819050919050565b600067ffffffffffffffff82169050919050565b6000819050919050565b600061205c61205761205284612019565b612037565b612023565b9050919050565b61206c81612041565b82525050565b60006020820190506120876000830184612063565b92915050565b7f576d624170703a206d75737420686176652061646d696e20726f6c6520746f2060008201527f73657420747275737465642072656d6f74657300000000000000000000000000602082015250565b60006120e9603383611f0a565b91506120f48261208d565b604082019050919050565b60006020820190508181036000830152612118816120dc565b9050919050565b7f576d624170703a20696e76616c696420696e7075740000000000000000000000600082015250565b6000612155601583611f0a565b91506121608261211f565b602082019050919050565b6000602082019050818103600083015261218481612148565b9050919050565b7f4e487b7100000000000000000000000000000000000000000000000000000000600052603260045260246000fd5b6121c381611984565b81146121ce57600080fd5b50565b6000813590506121e0816121ba565b92915050565b6000602082840312156121fc576121fb611855565b5b600061220a848285016121d1565b91505092915050565b60006020828403121561222957612228611855565b5b600061223784828501611a90565b91505092915050565b7f72656d6f746520706f6f6c206e6f7420636f6e66696775726564000000000000600082015250565b6000612276601a83611f0a565b915061228182612240565b602082019050919050565b600060208201905081810360008301526122a581612269565b9050919050565b7f63726f7373546f00000000000000000000000000000000000000000000000000600082015250565b60006122e2600783611f0a565b91506122ed826122ac565b602082019050919050565b600060808201905061230d6000830186611ae5565b61231a6020830185611ae5565b61232760408301846118d5565b8181036060830152612338816122d5565b9050949350505050565b600061234d82611a47565b9050919050565b61235d81612342565b811461236857600080fd5b50565b60008135905061237a81612354565b92915050565b600080fd5b6000601f19601f8301169050919050565b7f4e487b7100000000000000000000000000000000000000000000000000000000600052604160045260246000fd5b6123ce82612385565b810181811067ffffffffffffffff821117156123ed576123ec612396565b5b80604052505050565b600061240061184b565b905061240c82826123c5565b919050565b600067ffffffffffffffff82111561242c5761242b612396565b5b61243582612385565b9050602081019050919050565b82818337600083830152505050565b600061246461245f84612411565b6123f6565b9050828152602081018484840111156124805761247f612380565b5b61248b848285612442565b509392505050565b600082601f8301126124a8576124a7611b0f565b5b81356124b8848260208601612451565b91505092915050565b600080600080608085870312156124db576124da611855565b5b60006124e98782880161236b565b94505060206124fa8782880161236b565b935050604061250b87828801611880565b925050606085013567ffffffffffffffff81111561252c5761252b61185a565b5b61253887828801612493565b91505092959194509250565b600081519050919050565b60005b8381101561256d578082015181840152602081019050612552565b60008484015250505050565b600061258482612544565b61258e8185611f0a565b935061259e81856020860161254f565b6125a781612385565b840191505092915050565b60006040820190506125c760008301856118d5565b81810360208301526125d98184612579565b90509392505050565b7f63726f7373526576657274000000000000000000000000000000000000000000600082015250565b6000612618600b83611f0a565b9150612623826125e2565b602082019050919050565b60006080820190506126436000830186611ae5565b6126506020830185611ae5565b61265d60408301846118d5565b818103606083015261266e8161260b565b9050949350505050565b600060808201905061268d6000830187611ae5565b61269a6020830186611ae5565b6126a760408301856118d5565b6126b460608301846118d5565b95945050505050565b60006060820190506126d26000830186611ae5565b6126df6020830185611ae5565b6126ec60408301846118d5565b949350505050565b600081519050919050565b600082825260208201905092915050565b600061271b826126f4565b61272581856126ff565b935061273581856020860161254f565b61273e81612385565b840191505092915050565b600060608201905061275e60008301866118d5565b61276b6020830185611ae5565b818103604083015261277d8184612710565b9050949350505050565b600081519050612796816119c4565b92915050565b6000602082840312156127b2576127b1611855565b5b60006127c084828501612787565b91505092915050565b60006040820190506127de6000830185611ae5565b6127eb6020830184611a1d565b9392505050565b60006040820190506128076000830185611ae5565b61281460208301846118d5565b9392505050565b60008151905061282a816121ba565b92915050565b60006020828403121561284657612845611855565b5b60006128548482850161281b565b91505092915050565b600081905092915050565b6000612873826126f4565b61287d818561285d565b935061288d81856020860161254f565b80840191505092915050565b60006128a58284612868565b91508190509291505056fea26469706673582212201ddc57daaef674a665baa3ebb37b6f0e78afcb415580100df30f8a881f59797964736f6c63430008180033",
  "linkReferences": {},
  "deployedLinkReferences": {}
}