{
  "_format": "hh-sol-artifact-1",
  "contractName": "EdexaCCPool",
  "sourceName": "contracts/EdexaCCPool.sol",
  "abi": [
    {
      "inputs": [
        {
          "internalType": "address",
          "name": "_wmbGateway",
          "type": "address"
        },
        {
          "internalType": "address",
          "name": "_token",
          "type": "address"
        }
      ],
      "stateMutability": "nonpayable",
      "type": "constructor"
    },
    {
      "inputs": [],
      "name": "AccessControlBadConfirmation",
      "type": "error"
    },
    {
      "inputs": [
        {
          "internalType": "address",
          "name": "account",
          "type": "address"
        },
        {
          "internalType": "bytes32",
          "name": "neededRole",
          "type": "bytes32"
        }
      ],
      "name": "AccessControlUnauthorizedAccount",
      "type": "error"
    },
    {
      "inputs": [
        {
          "internalType": "address",
          "name": "target",
          "type": "address"
        }
      ],
      "name": "AddressEmptyCode",
      "type": "error"
    },
    {
      "inputs": [
        {
          "internalType": "address",
          "name": "account",
          "type": "address"
        }
      ],
      "name": "AddressInsufficientBalance",
      "type": "error"
    },
    {
      "inputs": [],
      "name": "FailedInnerCall",
      "type": "error"
    },
    {
      "inputs": [],
      "name": "InvalidInitialization",
      "type": "error"
    },
    {
      "inputs": [],
      "name": "NotInitializing",
      "type": "error"
    },
    {
      "inputs": [
        {
          "internalType": "address",
          "name": "from",
          "type": "address"
        },
        {
          "internalType": "address",
          "name": "to",
          "type": "address"
        },
        {
          "internalType": "uint256",
          "name": "amount",
          "type": "uint256"
        },
        {
          "internalType": "uint256",
          "name": "fromChainId",
          "type": "uint256"
        }
      ],
      "name": "RevertFailed",
      "type": "error"
    },
    {
      "inputs": [
        {
          "internalType": "address",
          "name": "token",
          "type": "address"
        }
      ],
      "name": "SafeERC20FailedOperation",
      "type": "error"
    },
    {
      "anonymous": false,
      "inputs": [
        {
          "indexed": true,
          "internalType": "uint256",
          "name": "fromChainId",
          "type": "uint256"
        },
        {
          "indexed": true,
          "internalType": "address",
          "name": "from",
          "type": "address"
        },
        {
          "indexed": true,
          "internalType": "address",
          "name": "to",
          "type": "address"
        },
        {
          "indexed": false,
          "internalType": "uint256",
          "name": "amount",
          "type": "uint256"
        },
        {
          "indexed": false,
          "internalType": "string",
          "name": "crossType",
          "type": "string"
        }
      ],
      "name": "CrossArrive",
      "type": "event"
    },
    {
      "anonymous": false,
      "inputs": [
        {
          "indexed": true,
          "internalType": "uint256",
          "name": "toChainId",
          "type": "uint256"
        },
        {
          "indexed": true,
          "internalType": "address",
          "name": "from",
          "type": "address"
        },
        {
          "indexed": true,
          "internalType": "address",
          "name": "to",
          "type": "address"
        },
        {
          "indexed": false,
          "internalType": "uint256",
          "name": "amount",
          "type": "uint256"
        }
      ],
      "name": "CrossRequest",
      "type": "event"
    },
    {
      "anonymous": false,
      "inputs": [
        {
          "indexed": true,
          "internalType": "uint256",
          "name": "fromChainId",
          "type": "uint256"
        },
        {
          "indexed": true,
          "internalType": "address",
          "name": "from",
          "type": "address"
        },
        {
          "indexed": true,
          "internalType": "address",
          "name": "to",
          "type": "address"
        },
        {
          "indexed": false,
          "internalType": "uint256",
          "name": "amount",
          "type": "uint256"
        }
      ],
      "name": "CrossRevert",
      "type": "event"
    },
    {
      "anonymous": false,
      "inputs": [
        {
          "indexed": false,
          "internalType": "uint64",
          "name": "version",
          "type": "uint64"
        }
      ],
      "name": "Initialized",
      "type": "event"
    },
    {
      "anonymous": false,
      "inputs": [
        {
          "indexed": true,
          "internalType": "bytes32",
          "name": "role",
          "type": "bytes32"
        },
        {
          "indexed": true,
          "internalType": "bytes32",
          "name": "previousAdminRole",
          "type": "bytes32"
        },
        {
          "indexed": true,
          "internalType": "bytes32",
          "name": "newAdminRole",
          "type": "bytes32"
        }
      ],
      "name": "RoleAdminChanged",
      "type": "event"
    },
    {
      "anonymous": false,
      "inputs": [
        {
          "indexed": true,
          "internalType": "bytes32",
          "name": "role",
          "type": "bytes32"
        },
        {
          "indexed": true,
          "internalType": "address",
          "name": "account",
          "type": "address"
        },
        {
          "indexed": true,
          "internalType": "address",
          "name": "sender",
          "type": "address"
        }
      ],
      "name": "RoleGranted",
      "type": "event"
    },
    {
      "anonymous": false,
      "inputs": [
        {
          "indexed": true,
          "internalType": "bytes32",
          "name": "role",
          "type": "bytes32"
        },
        {
          "indexed": true,
          "internalType": "address",
          "name": "account",
          "type": "address"
        },
        {
          "indexed": true,
          "internalType": "address",
          "name": "sender",
          "type": "address"
        }
      ],
      "name": "RoleRevoked",
      "type": "event"
    },
    {
      "inputs": [],
      "name": "DEFAULT_ADMIN_ROLE",
      "outputs": [
        {
          "internalType": "bytes32",
          "name": "",
          "type": "bytes32"
        }
      ],
      "stateMutability": "view",
      "type": "function"
    },
    {
      "inputs": [
        {
          "internalType": "uint256",
          "name": "_chainId",
          "type": "uint256"
        },
        {
          "internalType": "address",
          "name": "_remotePool",
          "type": "address"
        }
      ],
      "name": "configRemotePool",
      "outputs": [],
      "stateMutability": "nonpayable",
      "type": "function"
    },
    {
      "inputs": [
        {
          "internalType": "uint256",
          "name": "_toChainId",
          "type": "uint256"
        },
        {
          "internalType": "address",
          "name": "_to",
          "type": "address"
        },
        {
          "internalType": "uint256",
          "name": "_amount",
          "type": "uint256"
        }
      ],
      "name": "crossTo",
      "outputs": [],
      "stateMutability": "payable",
      "type": "function"
    },
    {
      "inputs": [
        {
          "internalType": "uint256",
          "name": "toChain",
          "type": "uint256"
        },
        {
          "internalType": "uint256",
          "name": "gasLimit",
          "type": "uint256"
        }
      ],
      "name": "estimateFee",
      "outputs": [
        {
          "internalType": "uint256",
          "name": "",
          "type": "uint256"
        }
      ],
      "stateMutability": "view",
      "type": "function"
    },
    {
      "inputs": [
        {
          "internalType": "bytes32",
          "name": "role",
          "type": "bytes32"
        }
      ],
      "name": "getRoleAdmin",
      "outputs": [
        {
          "internalType": "bytes32",
          "name": "",
          "type": "bytes32"
        }
      ],
      "stateMutability": "view",
      "type": "function"
    },
    {
      "inputs": [
        {
          "internalType": "bytes32",
          "name": "role",
          "type": "bytes32"
        },
        {
          "internalType": "address",
          "name": "account",
          "type": "address"
        }
      ],
      "name": "grantRole",
      "outputs": [],
      "stateMutability": "nonpayable",
      "type": "function"
    },
    {
      "inputs": [
        {
          "internalType": "bytes32",
          "name": "role",
          "type": "bytes32"
        },
        {
          "internalType": "address",
          "name": "account",
          "type": "address"
        }
      ],
      "name": "hasRole",
      "outputs": [
        {
          "internalType": "bool",
          "name": "",
          "type": "bool"
        }
      ],
      "stateMutability": "view",
      "type": "function"
    },
    {
      "inputs": [
        {
          "internalType": "address",
          "name": "admin",
          "type": "address"
        },
        {
          "internalType": "address",
          "name": "_wmbGateway",
          "type": "address"
        }
      ],
      "name": "initialize",
      "outputs": [],
      "stateMutability": "nonpayable",
      "type": "function"
    },
    {
      "inputs": [
        {
          "internalType": "uint256",
          "name": "",
          "type": "uint256"
        }
      ],
      "name": "remotePools",
      "outputs": [
        {
          "internalType": "address",
          "name": "",
          "type": "address"
        }
      ],
      "stateMutability": "view",
      "type": "function"
    },
    {
      "inputs": [
        {
          "internalType": "bytes32",
          "name": "role",
          "type": "bytes32"
        },
        {
          "internalType": "address",
          "name": "callerConfirmation",
          "type": "address"
        }
      ],
      "name": "renounceRole",
      "outputs": [],
      "stateMutability": "nonpayable",
      "type": "function"
    },
    {
      "inputs": [
        {
          "internalType": "bytes32",
          "name": "role",
          "type": "bytes32"
        },
        {
          "internalType": "address",
          "name": "account",
          "type": "address"
        }
      ],
      "name": "revokeRole",
      "outputs": [],
      "stateMutability": "nonpayable",
      "type": "function"
    },
    {
      "inputs": [
        {
          "internalType": "uint256[]",
          "name": "fromChainIds",
          "type": "uint256[]"
        },
        {
          "internalType": "address[]",
          "name": "froms",
          "type": "address[]"
        },
        {
          "internalType": "bool[]",
          "name": "trusted",
          "type": "bool[]"
        }
      ],
      "name": "setTrustedRemotes",
      "outputs": [],
      "stateMutability": "nonpayable",
      "type": "function"
    },
    {
      "inputs": [
        {
          "internalType": "bytes4",
          "name": "interfaceId",
          "type": "bytes4"
        }
      ],
      "name": "supportsInterface",
      "outputs": [
        {
          "internalType": "bool",
          "name": "",
          "type": "bool"
        }
      ],
      "stateMutability": "view",
      "type": "function"
    },
    {
      "inputs": [],
      "name": "token",
      "outputs": [
        {
          "internalType": "address",
          "name": "",
          "type": "address"
        }
      ],
      "stateMutability": "view",
      "type": "function"
    },
    {
      "inputs": [
        {
          "internalType": "uint256",
          "name": "",
          "type": "uint256"
        },
        {
          "internalType": "address",
          "name": "",
          "type": "address"
        }
      ],
      "name": "trustedRemotes",
      "outputs": [
        {
          "internalType": "bool",
          "name": "",
          "type": "bool"
        }
      ],
      "stateMutability": "view",
      "type": "function"
    },
    {
      "inputs": [],
      "name": "wmbGateway",
      "outputs": [
        {
          "internalType": "address",
          "name": "",
          "type": "address"
        }
      ],
      "stateMutability": "view",
      "type": "function"
    },
    {
      "inputs": [
        {
          "internalType": "bytes",
          "name": "data",
          "type": "bytes"
        },
        {
          "internalType": "bytes32",
          "name": "messageId",
          "type": "bytes32"
        },
        {
          "internalType": "uint256",
          "name": "fromChainId",
          "type": "uint256"
        },
        {
          "internalType": "address",
          "name": "from",
          "type": "address"
        }
      ],
      "name": "wmbReceive",
      "outputs": [],
      "stateMutability": "nonpayable",
      "type": "function"
    },
    {
      "stateMutability": "payable",
      "type": "receive"
    }
  ],
  "bytecode": "0x60806040523480156200001157600080fd5b5060405162002dc638038062002dc6833981810160405281019062000037919062000487565b6200004933836200009260201b60201c565b80600360006101000a81548173ffffffffffffffffffffffffffffffffffffffff021916908373ffffffffffffffffffffffffffffffffffffffff16021790555050506200054c565b6000620000a46200028060201b60201c565b905060008160000160089054906101000a900460ff1615905060008260000160009054906101000a900467ffffffffffffffff1690506000808267ffffffffffffffff16148015620000f35750825b9050600060018367ffffffffffffffff1614801562000129575060003073ffffffffffffffffffffffffffffffffffffffff163b145b90508115801562000138575080155b1562000170576040517ff92ee8a900000000000000000000000000000000000000000000000000000000815260040160405180910390fd5b60018560000160006101000a81548167ffffffffffffffff021916908367ffffffffffffffff1602179055508315620001c15760018560000160086101000a81548160ff0219169083151502179055505b620001d66000801b88620002a860201b60201c565b5085600160006101000a81548173ffffffffffffffffffffffffffffffffffffffff021916908373ffffffffffffffffffffffffffffffffffffffff1602179055508315620002775760008560000160086101000a81548160ff0219169083151502179055507fc7f505b2f371ae2175ee4913f4499e1f2633a7b5936321eed1cdaeb6115181d260016040516200026e91906200052f565b60405180910390a15b50505050505050565b60007ff0c57e16840df040f15088dc2f81fe391c3923bec73e23a9662efc9c229c6a00905090565b6000620002bc8383620003ab60201b60201c565b620003a057600160008085815260200190815260200160002060000160008473ffffffffffffffffffffffffffffffffffffffff1673ffffffffffffffffffffffffffffffffffffffff16815260200190815260200160002060006101000a81548160ff0219169083151502179055506200033c6200041560201b60201c565b73ffffffffffffffffffffffffffffffffffffffff168273ffffffffffffffffffffffffffffffffffffffff16847f2f8788117e7eff1d82e926ec794901d17c78024a50270940304540a733656f0d60405160405180910390a460019050620003a5565b600090505b92915050565b600080600084815260200190815260200160002060000160008373ffffffffffffffffffffffffffffffffffffffff1673ffffffffffffffffffffffffffffffffffffffff16815260200190815260200160002060009054906101000a900460ff16905092915050565b600033905090565b600080fd5b600073ffffffffffffffffffffffffffffffffffffffff82169050919050565b60006200044f8262000422565b9050919050565b620004618162000442565b81146200046d57600080fd5b50565b600081519050620004818162000456565b92915050565b60008060408385031215620004a157620004a06200041d565b5b6000620004b18582860162000470565b9250506020620004c48582860162000470565b9150509250929050565b6000819050919050565b600067ffffffffffffffff82169050919050565b6000819050919050565b600062000517620005116200050b84620004ce565b620004ec565b620004d8565b9050919050565b6200052981620004f6565b82525050565b60006020820190506200054660008301846200051e565b92915050565b61286a806200055c6000396000f3fe6080604052600436106101015760003560e01c8063485cc95511610095578063bf4512d311610064578063bf4512d314610340578063c2b8b0941461037d578063d547741f146103a6578063e3d4683b146103cf578063fc0c546a1461040c57610108565b8063485cc955146102865780637f34071d146102af57806391d14854146102d8578063a217fddf1461031557610108565b80632f2ff15d116100d15780632f2ff15d146101e05780633088a5f91461020957806336568abe146102345780633a1a5b761461025d57610108565b8062e1d8d01461010d57806301ffc9a71461014a578063248a9ca3146101875780632c0e86e6146101c457610108565b3661010857005b600080fd5b34801561011957600080fd5b50610134600480360381019061012f9190611806565b610437565b6040516101419190611855565b60405180910390f35b34801561015657600080fd5b50610171600480360381019061016c91906118c8565b6104de565b60405161017e9190611910565b60405180910390f35b34801561019357600080fd5b506101ae60048036038101906101a99190611961565b610558565b6040516101bb919061199d565b60405180910390f35b6101de60048036038101906101d99190611a16565b610577565b005b3480156101ec57600080fd5b5061020760048036038101906102029190611a69565b610748565b005b34801561021557600080fd5b5061021e61076a565b60405161022b9190611ab8565b60405180910390f35b34801561024057600080fd5b5061025b60048036038101906102569190611a69565b610790565b005b34801561026957600080fd5b50610284600480360381019061027f9190611b38565b61080b565b005b34801561029257600080fd5b506102ad60048036038101906102a89190611bc0565b61094c565b005b3480156102bb57600080fd5b506102d660048036038101906102d19190611d02565b610b22565b005b3480156102e457600080fd5b506102ff60048036038101906102fa9190611a69565b610cba565b60405161030c9190611910565b60405180910390f35b34801561032157600080fd5b5061032a610d24565b604051610337919061199d565b60405180910390f35b34801561034c57600080fd5b5061036760048036038101906103629190611db6565b610d2b565b6040516103749190611ab8565b60405180910390f35b34801561038957600080fd5b506103a4600480360381019061039f9190611de3565b610d5e565b005b3480156103b257600080fd5b506103cd60048036038101906103c89190611a69565b610dc2565b005b3480156103db57600080fd5b506103f660048036038101906103f19190611de3565b610de4565b6040516104039190611910565b60405180910390f35b34801561041857600080fd5b50610421610e13565b60405161042e9190611ab8565b60405180910390f35b6000600160009054906101000a900473ffffffffffffffffffffffffffffffffffffffff1673ffffffffffffffffffffffffffffffffffffffff1662e1d8d084846040518363ffffffff1660e01b8152600401610495929190611e23565b602060405180830381865afa1580156104b2573d6000803e3d6000fd5b505050506040513d601f19601f820116820180604052508101906104d69190611e61565b905092915050565b60007f7965db0b000000000000000000000000000000000000000000000000000000007bffffffffffffffffffffffffffffffffffffffffffffffffffffffff1916827bffffffffffffffffffffffffffffffffffffffffffffffffffffffff19161480610551575061055082610e39565b5b9050919050565b6000806000838152602001908152602001600020600101549050919050565b600073ffffffffffffffffffffffffffffffffffffffff166004600085815260200190815260200160002060009054906101000a900473ffffffffffffffffffffffffffffffffffffffff1673ffffffffffffffffffffffffffffffffffffffff1603610619576040517f08c379a000000000000000000000000000000000000000000000000000000000815260040161061090611eeb565b60405180910390fd5b610668333083600360009054906101000a900473ffffffffffffffffffffffffffffffffffffffff1673ffffffffffffffffffffffffffffffffffffffff16610ea3909392919063ffffffff16565b600061067784620c3500610437565b90506106db846004600087815260200190815260200160002060009054906101000a900473ffffffffffffffffffffffffffffffffffffffff163386866040516020016106c693929190611f57565b60405160208183030381529060405284610f25565b508273ffffffffffffffffffffffffffffffffffffffff163373ffffffffffffffffffffffffffffffffffffffff16857f1a57b6e187335684e3c8cb69608a4155049f5fbedb5af9e8c4afba983dcd14bd8560405161073a9190611855565b60405180910390a450505050565b61075182610558565b61075a81610fd4565b6107648383610fe8565b50505050565b600160009054906101000a900473ffffffffffffffffffffffffffffffffffffffff1681565b6107986110d9565b73ffffffffffffffffffffffffffffffffffffffff168173ffffffffffffffffffffffffffffffffffffffff16146107fc576040517f6697b23200000000000000000000000000000000000000000000000000000000815260040160405180910390fd5b61080682826110e1565b505050565b600160009054906101000a900473ffffffffffffffffffffffffffffffffffffffff1673ffffffffffffffffffffffffffffffffffffffff163373ffffffffffffffffffffffffffffffffffffffff161461089b576040517f08c379a000000000000000000000000000000000000000000000000000000000815260040161089290612013565b60405180910390fd5b6002600083815260200190815260200160002060008273ffffffffffffffffffffffffffffffffffffffff1673ffffffffffffffffffffffffffffffffffffffff16815260200190815260200160002060009054906101000a900460ff16610938576040517f08c379a000000000000000000000000000000000000000000000000000000000815260040161092f9061207f565b60405180910390fd5b61094585858585856111d3565b5050505050565b6000610956611476565b905060008160000160089054906101000a900460ff1615905060008260000160009054906101000a900467ffffffffffffffff1690506000808267ffffffffffffffff161480156109a45750825b9050600060018367ffffffffffffffff161480156109d9575060003073ffffffffffffffffffffffffffffffffffffffff163b145b9050811580156109e7575080155b15610a1e576040517ff92ee8a900000000000000000000000000000000000000000000000000000000815260040160405180910390fd5b60018560000160006101000a81548167ffffffffffffffff021916908367ffffffffffffffff1602179055508315610a6e5760018560000160086101000a81548160ff0219169083151502179055505b610a7b6000801b88610fe8565b5085600160006101000a81548173ffffffffffffffffffffffffffffffffffffffff021916908373ffffffffffffffffffffffffffffffffffffffff1602179055508315610b195760008560000160086101000a81548160ff0219169083151502179055507fc7f505b2f371ae2175ee4913f4499e1f2633a7b5936321eed1cdaeb6115181d26001604051610b1091906120f8565b60405180910390a15b50505050505050565b610b2f6000801b33610cba565b610b6e576040517f08c379a0000000000000000000000000000000000000000000000000000000008152600401610b6590612185565b60405180910390fd5b8383905086869050148015610b8857508181905084849050145b610bc7576040517f08c379a0000000000000000000000000000000000000000000000000000000008152600401610bbe906121f1565b60405180910390fd5b60005b86869050811015610cb157828282818110610be857610be7612211565b5b9050602002016020810190610bfd919061226c565b60026000898985818110610c1457610c13612211565b5b9050602002013581526020019081526020016000206000878785818110610c3e57610c3d612211565b5b9050602002016020810190610c539190612299565b73ffffffffffffffffffffffffffffffffffffffff1673ffffffffffffffffffffffffffffffffffffffff16815260200190815260200160002060006101000a81548160ff0219169083151502179055508080600101915050610bca565b50505050505050565b600080600084815260200190815260200160002060000160008373ffffffffffffffffffffffffffffffffffffffff1673ffffffffffffffffffffffffffffffffffffffff16815260200190815260200160002060009054906101000a900460ff16905092915050565b6000801b81565b60046020528060005260406000206000915054906101000a900473ffffffffffffffffffffffffffffffffffffffff1681565b6000801b610d6b81610fd4565b816004600085815260200190815260200160002060006101000a81548173ffffffffffffffffffffffffffffffffffffffff021916908373ffffffffffffffffffffffffffffffffffffffff160217905550505050565b610dcb82610558565b610dd481610fd4565b610dde83836110e1565b50505050565b60026020528160005260406000206020528060005260406000206000915091509054906101000a900460ff1681565b600360009054906101000a900473ffffffffffffffffffffffffffffffffffffffff1681565b60007f01ffc9a7000000000000000000000000000000000000000000000000000000007bffffffffffffffffffffffffffffffffffffffffffffffffffffffff1916827bffffffffffffffffffffffffffffffffffffffffffffffffffffffff1916149050919050565b610f1f848573ffffffffffffffffffffffffffffffffffffffff166323b872dd868686604051602401610ed8939291906122c6565b604051602081830303815290604052915060e01b6020820180517bffffffffffffffffffffffffffffffffffffffffffffffffffffffff838183161783525050505061149e565b50505050565b6000600160009054906101000a900473ffffffffffffffffffffffffffffffffffffffff1673ffffffffffffffffffffffffffffffffffffffff1663fe39827b838787876040518563ffffffff1660e01b8152600401610f879392919061238d565b60206040518083038185885af1158015610fa5573d6000803e3d6000fd5b50505050506040513d601f19601f82011682018060405250810190610fca91906123e0565b9050949350505050565b610fe581610fe06110d9565b611535565b50565b6000610ff48383610cba565b6110ce57600160008085815260200190815260200160002060000160008473ffffffffffffffffffffffffffffffffffffffff1673ffffffffffffffffffffffffffffffffffffffff16815260200190815260200160002060006101000a81548160ff02191690831515021790555061106b6110d9565b73ffffffffffffffffffffffffffffffffffffffff168273ffffffffffffffffffffffffffffffffffffffff16847f2f8788117e7eff1d82e926ec794901d17c78024a50270940304540a733656f0d60405160405180910390a4600190506110d3565b600090505b92915050565b600033905090565b60006110ed8383610cba565b156111c857600080600085815260200190815260200160002060000160008473ffffffffffffffffffffffffffffffffffffffff1673ffffffffffffffffffffffffffffffffffffffff16815260200190815260200160002060006101000a81548160ff0219169083151502179055506111656110d9565b73ffffffffffffffffffffffffffffffffffffffff168273ffffffffffffffffffffffffffffffffffffffff16847ff6391f5c32d9c69d2a47ea670b442974b53935d1edc7fd64eb21e047a839171b60405160405180910390a4600190506111cd565b600090505b92915050565b60008060008088888101906111e8919061257b565b935093509350935081600360009054906101000a900473ffffffffffffffffffffffffffffffffffffffff1673ffffffffffffffffffffffffffffffffffffffff166370a08231306040518263ffffffff1660e01b815260040161124c9190611ab8565b602060405180830381865afa158015611269573d6000803e3d6000fd5b505050506040513d601f19601f8201168201806040525081019061128d9190611e61565b1061134c576112df8383600360009054906101000a900473ffffffffffffffffffffffffffffffffffffffff1673ffffffffffffffffffffffffffffffffffffffff166115869092919063ffffffff16565b8273ffffffffffffffffffffffffffffffffffffffff168473ffffffffffffffffffffffffffffffffffffffff16877f562d19e64f1e6d0b1cc1ff383f9fbc0162d055202278d2c7dcc258b25cb700b7858560405161133f929190612642565b60405180910390a461146b565b7f8dc8cb22bfc1eeba340c0c09f7a1b7041c2a96a4c3a89cb2d47ecc671471db8d8180519060200120036114275760006113898762061a80610437565b90506113ba87878688876040516020016113a5939291906126be565b60405160208183030381529060405284610f25565b508373ffffffffffffffffffffffffffffffffffffffff168573ffffffffffffffffffffffffffffffffffffffff16887f71bf04511eb7e8368da280a96ce20f45bb43fda962d1b0c39f90a08b5e2ef489866040516114199190611855565b60405180910390a45061146a565b838383886040517f544e6f4f0000000000000000000000000000000000000000000000000000000081526004016114619493929190612708565b60405180910390fd5b5b505050505050505050565b60007ff0c57e16840df040f15088dc2f81fe391c3923bec73e23a9662efc9c229c6a00905090565b60006114c9828473ffffffffffffffffffffffffffffffffffffffff1661160590919063ffffffff16565b905060008151141580156114ee5750808060200190518101906114ec9190612762565b155b1561153057826040517f5274afe70000000000000000000000000000000000000000000000000000000081526004016115279190611ab8565b60405180910390fd5b505050565b61153f8282610cba565b6115825780826040517fe2517d3f00000000000000000000000000000000000000000000000000000000815260040161157992919061278f565b60405180910390fd5b5050565b611600838473ffffffffffffffffffffffffffffffffffffffff1663a9059cbb85856040516024016115b99291906127b8565b604051602081830303815290604052915060e01b6020820180517bffffffffffffffffffffffffffffffffffffffffffffffffffffffff838183161783525050505061149e565b505050565b60606116138383600061161b565b905092915050565b60608147101561166257306040517fcd7860590000000000000000000000000000000000000000000000000000000081526004016116599190611ab8565b60405180910390fd5b6000808573ffffffffffffffffffffffffffffffffffffffff16848660405161168b919061281d565b60006040518083038185875af1925050503d80600081146116c8576040519150601f19603f3d011682016040523d82523d6000602084013e6116cd565b606091505b50915091506116dd8683836116e8565b925050509392505050565b6060826116fd576116f882611777565b61176f565b60008251148015611725575060008473ffffffffffffffffffffffffffffffffffffffff163b145b1561176757836040517f9996b31500000000000000000000000000000000000000000000000000000000815260040161175e9190611ab8565b60405180910390fd5b819050611770565b5b9392505050565b60008151111561178a5780518082602001fd5b6040517f1425ea4200000000000000000000000000000000000000000000000000000000815260040160405180910390fd5b6000604051905090565b600080fd5b600080fd5b6000819050919050565b6117e3816117d0565b81146117ee57600080fd5b50565b600081359050611800816117da565b92915050565b6000806040838503121561181d5761181c6117c6565b5b600061182b858286016117f1565b925050602061183c858286016117f1565b9150509250929050565b61184f816117d0565b82525050565b600060208201905061186a6000830184611846565b92915050565b60007fffffffff0000000000000000000000000000000000000000000000000000000082169050919050565b6118a581611870565b81146118b057600080fd5b50565b6000813590506118c28161189c565b92915050565b6000602082840312156118de576118dd6117c6565b5b60006118ec848285016118b3565b91505092915050565b60008115159050919050565b61190a816118f5565b82525050565b60006020820190506119256000830184611901565b92915050565b6000819050919050565b61193e8161192b565b811461194957600080fd5b50565b60008135905061195b81611935565b92915050565b600060208284031215611977576119766117c6565b5b60006119858482850161194c565b91505092915050565b6119978161192b565b82525050565b60006020820190506119b2600083018461198e565b92915050565b600073ffffffffffffffffffffffffffffffffffffffff82169050919050565b60006119e3826119b8565b9050919050565b6119f3816119d8565b81146119fe57600080fd5b50565b600081359050611a10816119ea565b92915050565b600080600060608486031215611a2f57611a2e6117c6565b5b6000611a3d868287016117f1565b9350506020611a4e86828701611a01565b9250506040611a5f868287016117f1565b9150509250925092565b60008060408385031215611a8057611a7f6117c6565b5b6000611a8e8582860161194c565b9250506020611a9f85828601611a01565b9150509250929050565b611ab2816119d8565b82525050565b6000602082019050611acd6000830184611aa9565b92915050565b600080fd5b600080fd5b600080fd5b60008083601f840112611af857611af7611ad3565b5b8235905067ffffffffffffffff811115611b1557611b14611ad8565b5b602083019150836001820283011115611b3157611b30611add565b5b9250929050565b600080600080600060808688031215611b5457611b536117c6565b5b600086013567ffffffffffffffff811115611b7257611b716117cb565b5b611b7e88828901611ae2565b95509550506020611b918882890161194c565b9350506040611ba2888289016117f1565b9250506060611bb388828901611a01565b9150509295509295909350565b60008060408385031215611bd757611bd66117c6565b5b6000611be585828601611a01565b9250506020611bf685828601611a01565b9150509250929050565b60008083601f840112611c1657611c15611ad3565b5b8235905067ffffffffffffffff811115611c3357611c32611ad8565b5b602083019150836020820283011115611c4f57611c4e611add565b5b9250929050565b60008083601f840112611c6c57611c6b611ad3565b5b8235905067ffffffffffffffff811115611c8957611c88611ad8565b5b602083019150836020820283011115611ca557611ca4611add565b5b9250929050565b60008083601f840112611cc257611cc1611ad3565b5b8235905067ffffffffffffffff811115611cdf57611cde611ad8565b5b602083019150836020820283011115611cfb57611cfa611add565b5b9250929050565b60008060008060008060608789031215611d1f57611d1e6117c6565b5b600087013567ffffffffffffffff811115611d3d57611d3c6117cb565b5b611d4989828a01611c00565b9650965050602087013567ffffffffffffffff811115611d6c57611d6b6117cb565b5b611d7889828a01611c56565b9450945050604087013567ffffffffffffffff811115611d9b57611d9a6117cb565b5b611da789828a01611cac565b92509250509295509295509295565b600060208284031215611dcc57611dcb6117c6565b5b6000611dda848285016117f1565b91505092915050565b60008060408385031215611dfa57611df96117c6565b5b6000611e08858286016117f1565b9250506020611e1985828601611a01565b9150509250929050565b6000604082019050611e386000830185611846565b611e456020830184611846565b9392505050565b600081519050611e5b816117da565b92915050565b600060208284031215611e7757611e766117c6565b5b6000611e8584828501611e4c565b91505092915050565b600082825260208201905092915050565b7f72656d6f746520706f6f6c206e6f7420636f6e66696775726564000000000000600082015250565b6000611ed5601a83611e8e565b9150611ee082611e9f565b602082019050919050565b60006020820190508181036000830152611f0481611ec8565b9050919050565b7f63726f7373546f00000000000000000000000000000000000000000000000000600082015250565b6000611f41600783611e8e565b9150611f4c82611f0b565b602082019050919050565b6000608082019050611f6c6000830186611aa9565b611f796020830185611aa9565b611f866040830184611846565b8181036060830152611f9781611f34565b9050949350505050565b7f576d624170703a204f6e6c7920574d4220676174657761792063616e2063616c60008201527f6c20746869732066756e6374696f6e0000000000000000000000000000000000602082015250565b6000611ffd602f83611e8e565b915061200882611fa1565b604082019050919050565b6000602082019050818103600083015261202c81611ff0565b9050919050565b7f576d624170703a2052656d6f7465206973206e6f742074727573746564000000600082015250565b6000612069601d83611e8e565b915061207482612033565b602082019050919050565b600060208201905081810360008301526120988161205c565b9050919050565b6000819050919050565b600067ffffffffffffffff82169050919050565b6000819050919050565b60006120e26120dd6120d88461209f565b6120bd565b6120a9565b9050919050565b6120f2816120c7565b82525050565b600060208201905061210d60008301846120e9565b92915050565b7f576d624170703a206d75737420686176652061646d696e20726f6c6520746f2060008201527f73657420747275737465642072656d6f74657300000000000000000000000000602082015250565b600061216f603383611e8e565b915061217a82612113565b604082019050919050565b6000602082019050818103600083015261219e81612162565b9050919050565b7f576d624170703a20696e76616c696420696e7075740000000000000000000000600082015250565b60006121db601583611e8e565b91506121e6826121a5565b602082019050919050565b6000602082019050818103600083015261220a816121ce565b9050919050565b7f4e487b7100000000000000000000000000000000000000000000000000000000600052603260045260246000fd5b612249816118f5565b811461225457600080fd5b50565b60008135905061226681612240565b92915050565b600060208284031215612282576122816117c6565b5b600061229084828501612257565b91505092915050565b6000602082840312156122af576122ae6117c6565b5b60006122bd84828501611a01565b91505092915050565b60006060820190506122db6000830186611aa9565b6122e86020830185611aa9565b6122f56040830184611846565b949350505050565b600081519050919050565b600082825260208201905092915050565b60005b8381101561233757808201518184015260208101905061231c565b60008484015250505050565b6000601f19601f8301169050919050565b600061235f826122fd565b6123698185612308565b9350612379818560208601612319565b61238281612343565b840191505092915050565b60006060820190506123a26000830186611846565b6123af6020830185611aa9565b81810360408301526123c18184612354565b9050949350505050565b6000815190506123da81611935565b92915050565b6000602082840312156123f6576123f56117c6565b5b6000612404848285016123cb565b91505092915050565b6000612418826119b8565b9050919050565b6124288161240d565b811461243357600080fd5b50565b6000813590506124458161241f565b92915050565b600080fd5b7f4e487b7100000000000000000000000000000000000000000000000000000000600052604160045260246000fd5b61248882612343565b810181811067ffffffffffffffff821117156124a7576124a6612450565b5b80604052505050565b60006124ba6117bc565b90506124c6828261247f565b919050565b600067ffffffffffffffff8211156124e6576124e5612450565b5b6124ef82612343565b9050602081019050919050565b82818337600083830152505050565b600061251e612519846124cb565b6124b0565b90508281526020810184848401111561253a5761253961244b565b5b6125458482856124fc565b509392505050565b600082601f83011261256257612561611ad3565b5b813561257284826020860161250b565b91505092915050565b60008060008060808587031215612595576125946117c6565b5b60006125a387828801612436565b94505060206125b487828801612436565b93505060406125c5878288016117f1565b925050606085013567ffffffffffffffff8111156125e6576125e56117cb565b5b6125f28782880161254d565b91505092959194509250565b600081519050919050565b6000612614826125fe565b61261e8185611e8e565b935061262e818560208601612319565b61263781612343565b840191505092915050565b60006040820190506126576000830185611846565b81810360208301526126698184612609565b90509392505050565b7f63726f7373526576657274000000000000000000000000000000000000000000600082015250565b60006126a8600b83611e8e565b91506126b382612672565b602082019050919050565b60006080820190506126d36000830186611aa9565b6126e06020830185611aa9565b6126ed6040830184611846565b81810360608301526126fe8161269b565b9050949350505050565b600060808201905061271d6000830187611aa9565b61272a6020830186611aa9565b6127376040830185611846565b6127446060830184611846565b95945050505050565b60008151905061275c81612240565b92915050565b600060208284031215612778576127776117c6565b5b60006127868482850161274d565b91505092915050565b60006040820190506127a46000830185611aa9565b6127b1602083018461198e565b9392505050565b60006040820190506127cd6000830185611aa9565b6127da6020830184611846565b9392505050565b600081905092915050565b60006127f7826122fd565b61280181856127e1565b9350612811818560208601612319565b80840191505092915050565b600061282982846127ec565b91508190509291505056fea2646970667358221220d72d01dd2a5575d83fea14f20e95600376ab69aaf56941c7c0b6b2f09c3a879364736f6c63430008180033",
  "linkReferences": {},
  "deployedLinkReferences": {}
}